{
  "transactions": [
    {
      "hash": "0x711dc7bd7da0345ff01206ae2b674156d2568a2e3817cf24deba1f1b226ec220",
      "transactionType": "CALL",
      "contractName": null,
      "contractAddress": "0x85bb6d27571c3175c81fe212c0decca2202147b9",
      "function": "setTokenConversionInfo(address,uint8,uint256,uint256,uint256,address)",
      "arguments": [
        "0x0000000000000000000000000000000000000000",
        "0",
        "1000000000000000",
        "898000000000000000",
        "10000000000000000",
        "0x7f6708716FDDFA4c2674eFa4ee20deF1b4d5C5aD"
      ],
      "transaction": {
        "from": "0x6faff29226219756aa40ce648dbc65fb41de5f72",
        "to": "0x85bb6d27571c3175c81fe212c0decca2202147b9",
        "gas": "0x273b6",
        "value": "0x0",
        "input": "0x73effedd0000000000000000000000000000000000000000000000000000000000000000000000000000000000000000000000000000000000000000000000000000000000000000000000000000000000000000000000000000000000038d7ea4c680000000000000000000000000000000000000000000000000000c76563e004d0000000000000000000000000000000000000000000000000000002386f26fc100000000000000000000000000007f6708716fddfa4c2674efa4ee20def1b4d5c5ad",
        "nonce": "0x8",
        "chainId": "0x515"
      },
      "additionalContracts": [],
      "isFixedGasLimit": false
    },
    {
      "hash": "0x5468b153a09c9d8af837bdbfa456bafa290171967a857164d81033bd1422a9df",
      "transactionType": "CALL",
      "contractName": null,
      "contractAddress": "0x85bb6d27571c3175c81fe212c0decca2202147b9",
      "function": "setTokenConversionInfo(address,uint8,uint256,uint256,uint256,address)",
      "arguments": [
        "0x61E214E7d4DF2e619AF3F2eF4E590ABa4480259F",
        "0",
        "1000000000000000000",
        "664600000000000000",
        "10000000000000000",
        "0x5fD7476f615C53929922130DC8bf297e1a011f75"
      ],
      "transaction": {
        "from": "0x6faff29226219756aa40ce648dbc65fb41de5f72",
        "to": "0x85bb6d27571c3175c81fe212c0decca2202147b9",
        "gas": "0x27522",
        "value": "0x0",
        "input": "0x73effedd00000000000000000000000061e214e7d4df2e619af3f2ef4e590aba4480259f00000000000000000000000000000000000000000000000000000000000000000000000000000000000000000000000000000000000000000de0b6b3a76400000000000000000000000000000000000000000000000000000939222dc5b98000000000000000000000000000000000000000000000000000002386f26fc100000000000000000000000000005fd7476f615c53929922130dc8bf297e1a011f75",
        "nonce": "0x9",
        "chainId": "0x515"
      },
      "additionalContracts": [],
      "isFixedGasLimit": false
    },
    {
      "hash": "0x1dd5a34401efd87b831ef561f695d14c4b75ef7030230056d0c0aca4aee70ff1",
      "transactionType": "CALL",
      "contractName": null,
      "contractAddress": "0x85bb6d27571c3175c81fe212c0decca2202147b9",
      "function": "setTokenConversionInfo(address,uint8,uint256,uint256,uint256,address)",
      "arguments": [
        "0x7f6708716FDDFA4c2674eFa4ee20deF1b4d5C5aD",
        "1",
        "1000000000000000",
        "898000000000000000",
        "10000000000000000",
        "0x0000000000000000000000000000000000000000"
      ],
      "transaction": {
        "from": "0x6faff29226219756aa40ce648dbc65fb41de5f72",
        "to": "0x85bb6d27571c3175c81fe212c0decca2202147b9",
        "gas": "0x273fd",
        "value": "0x0",
        "input": "0x73effedd0000000000000000000000007f6708716fddfa4c2674efa4ee20def1b4d5c5ad000000000000000000000000000000000000000000000000000000000000000100000000000000000000000000000000000000000000000000038d7ea4c680000000000000000000000000000000000000000000000000000c76563e004d0000000000000000000000000000000000000000000000000000002386f26fc100000000000000000000000000000000000000000000000000000000000000000000",
        "nonce": "0xa",
        "chainId": "0x515"
      },
      "additionalContracts": [],
      "isFixedGasLimit": false
    },
    {
      "hash": "0x7117b0028bf4cf91ff29ad0293990739001cf83d2f8e20f14bd3126f18bc8a2c",
      "transactionType": "CALL",
      "contractName": null,
      "contractAddress": "0x85bb6d27571c3175c81fe212c0decca2202147b9",
      "function": "setTokenConversionInfo(address,uint8,uint256,uint256,uint256,address)",
      "arguments": [
        "0x5fD7476f615C53929922130DC8bf297e1a011f75",
        "1",
        "1000000000000000000",
        "664600000000000000",
        "10000000000000000",
        "0x61E214E7d4DF2e619AF3F2eF4E590ABa4480259F"
      ],
      "transaction": {
        "from": "0x6faff29226219756aa40ce648dbc65fb41de5f72",
        "to": "0x85bb6d27571c3175c81fe212c0decca2202147b9",
        "gas": "0x2e0c9",
        "value": "0x0",
        "input": "0x73effedd0000000000000000000000005fd7476f615c53929922130dc8bf297e1a011f7500000000000000000000000000000000000000000000000000000000000000010000000000000000000000000000000000000000000000000de0b6b3a76400000000000000000000000000000000000000000000000000000939222dc5b98000000000000000000000000000000000000000000000000000002386f26fc1000000000000000000000000000061e214e7d4df2e619af3f2ef4e590aba4480259f",
        "nonce": "0xb",
        "chainId": "0x515"
      },
      "additionalContracts": [],
      "isFixedGasLimit": false
    }
  ],
  "receipts": [
    {
      "status": "0x1",
      "cumulativeGasUsed": "0x33156",
      "logs": [],
      "logsBloom": "0x00000000000000000000000000000000000000000000000000000000000000000000000000000000000000000000000000000000000000000000000000000000000000000000000000000000000000000000000000000000000000000000000000000000000000000000000000000000000000000000000000000000000000000000000000000000000000000000000000000000000000000000000000000000000000000000000000000000000000000000000000000000000000000000000000000000000000000000000000000000000000000000000000000000000000000000000000000000000000000000000000000000000000000000000000000000",
      "type": "0x2",
      "transactionHash": "0x711dc7bd7da0345ff01206ae2b674156d2568a2e3817cf24deba1f1b226ec220",
      "transactionIndex": "0x2",
      "blockHash": "0xe3ae1c65c90a893bc74043b388285122b48d520e9f7fcfc5e3f2ab1261a86106",
      "blockNumber": "0x14a391c",
      "gasUsed": "0x1c674",
      "effectiveGasPrice": "0x2faf083",
      "from": "0x6faff29226219756aa40ce648dbc65fb41de5f72",
      "to": "0x85bb6d27571c3175c81fe212c0decca2202147b9",
      "contractAddress": null,
      "l1BaseFeeScalar": "0x7d0",
      "l1BlobBaseFee": "0x1",
      "l1BlobBaseFeeScalar": "0xdbba0",
      "l1Fee": "0x10d",
      "l1GasPrice": "0x32",
      "l1GasUsed": "0x6bf"
    },
    {
      "status": "0x1",
      "cumulativeGasUsed": "0x4f8d2",
      "logs": [],
      "logsBloom": "0x00000000000000000000000000000000000000000000000000000000000000000000000000000000000000000000000000000000000000000000000000000000000000000000000000000000000000000000000000000000000000000000000000000000000000000000000000000000000000000000000000000000000000000000000000000000000000000000000000000000000000000000000000000000000000000000000000000000000000000000000000000000000000000000000000000000000000000000000000000000000000000000000000000000000000000000000000000000000000000000000000000000000000000000000000000000",
      "type": "0x2",
      "transactionHash": "0x5468b153a09c9d8af837bdbfa456bafa290171967a857164d81033bd1422a9df",
      "transactionIndex": "0x3",
      "blockHash": "0xe3ae1c65c90a893bc74043b388285122b48d520e9f7fcfc5e3f2ab1261a86106",
      "blockNumber": "0x14a391c",
      "gasUsed": "0x1c77c",
      "effectiveGasPrice": "0x2faf083",
      "from": "0x6faff29226219756aa40ce648dbc65fb41de5f72",
      "to": "0x85bb6d27571c3175c81fe212c0decca2202147b9",
      "contractAddress": null,
      "l1BaseFeeScalar": "0x7d0",
      "l1BlobBaseFee": "0x1",
      "l1BlobBaseFeeScalar": "0xdbba0",
      "l1Fee": "0x140",
      "l1GasPrice": "0x32",
      "l1GasUsed": "0x800"
    },
    {
      "status": "0x1",
      "cumulativeGasUsed": "0x6bf7a",
      "logs": [],
      "logsBloom": "0x00000000000000000000000000000000000000000000000000000000000000000000000000000000000000000000000000000000000000000000000000000000000000000000000000000000000000000000000000000000000000000000000000000000000000000000000000000000000000000000000000000000000000000000000000000000000000000000000000000000000000000000000000000000000000000000000000000000000000000000000000000000000000000000000000000000000000000000000000000000000000000000000000000000000000000000000000000000000000000000000000000000000000000000000000000000",
      "type": "0x2",
      "transactionHash": "0x1dd5a34401efd87b831ef561f695d14c4b75ef7030230056d0c0aca4aee70ff1",
      "transactionIndex": "0x4",
      "blockHash": "0xe3ae1c65c90a893bc74043b388285122b48d520e9f7fcfc5e3f2ab1261a86106",
      "blockNumber": "0x14a391c",
      "gasUsed": "0x1c6a8",
      "effectiveGasPrice": "0x2faf083",
      "from": "0x6faff29226219756aa40ce648dbc65fb41de5f72",
      "to": "0x85bb6d27571c3175c81fe212c0decca2202147b9",
      "contractAddress": null,
      "l1BaseFeeScalar": "0x7d0",
      "l1BlobBaseFee": "0x1",
      "l1BlobBaseFeeScalar": "0xdbba0",
      "l1Fee": "0x12f",
      "l1GasPrice": "0x32",
      "l1GasUsed": "0x795"
    },
    {
      "status": "0x1",
      "cumulativeGasUsed": "0x8d4e6",
      "logs": [],
      "logsBloom": "0x00000000000000000000000000000000000000000000000000000000000000000000000000000000000000000000000000000000000000000000000000000000000000000000000000000000000000000000000000000000000000000000000000000000000000000000000000000000000000000000000000000000000000000000000000000000000000000000000000000000000000000000000000000000000000000000000000000000000000000000000000000000000000000000000000000000000000000000000000000000000000000000000000000000000000000000000000000000000000000000000000000000000000000000000000000000",
      "type": "0x2",
      "transactionHash": "0x7117b0028bf4cf91ff29ad0293990739001cf83d2f8e20f14bd3126f18bc8a2c",
      "transactionIndex": "0x5",
      "blockHash": "0xe3ae1c65c90a893bc74043b388285122b48d520e9f7fcfc5e3f2ab1261a86106",
      "blockNumber": "0x14a391c",
      "gasUsed": "0x2156c",
      "effectiveGasPrice": "0x2faf083",
      "from": "0x6faff29226219756aa40ce648dbc65fb41de5f72",
      "to": "0x85bb6d27571c3175c81fe212c0decca2202147b9",
      "contractAddress": null,
      "l1BaseFeeScalar": "0x7d0",
      "l1BlobBaseFee": "0x1",
      "l1BlobBaseFeeScalar": "0xdbba0",
      "l1Fee": "0x15b",
      "l1GasPrice": "0x32",
      "l1GasUsed": "0x8ae"
    }
  ],
  "libraries": [],
  "pending": [],
  "returns": {},
  "timestamp": 1748493929,
  "chain": 1301,
  "commit": "096bbda"
}