{
  "transactions": [
    {
      "hash": "0x402f27b6f4be8883a0df86aa3b9420ed287f50489e374abca7edd6cc88885188",
      "transactionType": "CALL",
      "contractName": "L2Slpx",
      "contractAddress": "0x62ca64454046bbc18e35066a6350acb0378eb3c2",
      "function": "setTokenConversionInfo(address,uint8,uint256,uint256,uint256,address)",
      "arguments": [
        "0x0000000000000000000000000000000000000000",
        "0",
        "1000000000000000",
        "898000000000000000",
        "10000000000000000",
        "0x0E011f93777B00f48B881B1Cabc5F0A6395BdC02"
      ],
      "transaction": {
        "from": "0x6faff29226219756aa40ce648dbc65fb41de5f72",
        "to": "0x62ca64454046bbc18e35066a6350acb0378eb3c2",
        "gas": "0x25845",
        "value": "0x0",
        "input": "0x73effedd0000000000000000000000000000000000000000000000000000000000000000000000000000000000000000000000000000000000000000000000000000000000000000000000000000000000000000000000000000000000038d7ea4c680000000000000000000000000000000000000000000000000000c76563e004d0000000000000000000000000000000000000000000000000000002386f26fc100000000000000000000000000000e011f93777b00f48b881b1cabc5f0a6395bdc02",
        "nonce": "0x18",
        "chainId": "0x66eee"
      },
      "additionalContracts": [],
      "isFixedGasLimit": false
    },
    {
      "hash": "0xc1dc0180e380ecf09ee9983d02ca5f24d9b4862e77d3de47f9e9470598fe3f00",
      "transactionType": "CALL",
      "contractName": "L2Slpx",
      "contractAddress": "0x62ca64454046bbc18e35066a6350acb0378eb3c2",
      "function": "setTokenConversionInfo(address,uint8,uint256,uint256,uint256,address)",
      "arguments": [
        "0x3A8EDecAb3E4178f06dD57be13676195571fEA2f",
        "0",
        "1000000000000000000",
        "664600000000000000",
        "10000000000000000",
        "0x6C0AAb3F91C4e49F6442CCEb65973778Ab0A177A"
      ],
      "transaction": {
        "from": "0x6faff29226219756aa40ce648dbc65fb41de5f72",
        "to": "0x62ca64454046bbc18e35066a6350acb0378eb3c2",
        "gas": "0x259ad",
        "value": "0x0",
        "input": "0x73effedd0000000000000000000000003a8edecab3e4178f06dd57be13676195571fea2f00000000000000000000000000000000000000000000000000000000000000000000000000000000000000000000000000000000000000000de0b6b3a76400000000000000000000000000000000000000000000000000000939222dc5b98000000000000000000000000000000000000000000000000000002386f26fc100000000000000000000000000006c0aab3f91c4e49f6442cceb65973778ab0a177a",
        "nonce": "0x19",
        "chainId": "0x66eee"
      },
      "additionalContracts": [],
      "isFixedGasLimit": false
    },
    {
      "hash": "0xeb4fb1d11b40864ad266adb3644b3904c9ce08c2be1fa1af619f570661f03f69",
      "transactionType": "CALL",
      "contractName": "L2Slpx",
      "contractAddress": "0x62ca64454046bbc18e35066a6350acb0378eb3c2",
      "function": "setTokenConversionInfo(address,uint8,uint256,uint256,uint256,address)",
      "arguments": [
        "0x0E011f93777B00f48B881B1Cabc5F0A6395BdC02",
        "1",
        "1000000000000000",
        "898000000000000000",
        "10000000000000000",
        "0x0000000000000000000000000000000000000000"
      ],
      "transaction": {
        "from": "0x6faff29226219756aa40ce648dbc65fb41de5f72",
        "to": "0x62ca64454046bbc18e35066a6350acb0378eb3c2",
        "gas": "0x26353",
        "value": "0x0",
        "input": "0x73effedd0000000000000000000000000e011f93777b00f48b881b1cabc5f0a6395bdc02000000000000000000000000000000000000000000000000000000000000000100000000000000000000000000000000000000000000000000038d7ea4c680000000000000000000000000000000000000000000000000000c76563e004d0000000000000000000000000000000000000000000000000000002386f26fc100000000000000000000000000000000000000000000000000000000000000000000",
        "nonce": "0x1a",
        "chainId": "0x66eee"
      },
      "additionalContracts": [],
      "isFixedGasLimit": false
    },
    {
      "hash": "0xbade33f2c2dbca05119fe5ec6b8c949aca903c2da2b6e10a39e75e98e14fab48",
      "transactionType": "CALL",
      "contractName": "L2Slpx",
      "contractAddress": "0x62ca64454046bbc18e35066a6350acb0378eb3c2",
      "function": "setTokenConversionInfo(address,uint8,uint256,uint256,uint256,address)",
      "arguments": [
        "0x6C0AAb3F91C4e49F6442CCEb65973778Ab0A177A",
        "1",
        "1000000000000000000",
        "664600000000000000",
        "10000000000000000",
        "0x3A8EDecAb3E4178f06dD57be13676195571fEA2f"
      ],
      "transaction": {
        "from": "0x6faff29226219756aa40ce648dbc65fb41de5f72",
        "to": "0x62ca64454046bbc18e35066a6350acb0378eb3c2",
        "gas": "0x2bf87",
        "value": "0x0",
        "input": "0x73effedd0000000000000000000000006c0aab3f91c4e49f6442cceb65973778ab0a177a00000000000000000000000000000000000000000000000000000000000000010000000000000000000000000000000000000000000000000de0b6b3a76400000000000000000000000000000000000000000000000000000939222dc5b98000000000000000000000000000000000000000000000000000002386f26fc100000000000000000000000000003a8edecab3e4178f06dd57be13676195571fea2f",
        "nonce": "0x1b",
        "chainId": "0x66eee"
      },
      "additionalContracts": [],
      "isFixedGasLimit": false
    }
  ],
  "receipts": [
    {
      "status": "0x1",
      "cumulativeGasUsed": "0x4b864",
      "logs": [],
      "logsBloom": "0x00000000000000000000000000000000000000000000000000000000000000000000000000000000000000000000000000000000000000000000000000000000000000000000000000000000000000000000000000000000000000000000000000000000000000000000000000000000000000000000000000000000000000000000000000000000000000000000000000000000000000000000000000000000000000000000000000000000000000000000000000000000000000000000000000000000000000000000000000000000000000000000000000000000000000000000000000000000000000000000000000000000000000000000000000000000",
      "type": "0x2",
      "transactionHash": "0x402f27b6f4be8883a0df86aa3b9420ed287f50489e374abca7edd6cc88885188",
      "transactionIndex": "0x3",
      "blockHash": "0xb309b779355db028dfa7ead5b8d029f9ca39219dab680a1c4adc8941d5d99b6a",
      "blockNumber": "0x9698c0e",
      "gasUsed": "0x1c9a7",
      "effectiveGasPrice": "0x5f5e100",
      "from": "0x6faff29226219756aa40ce648dbc65fb41de5f72",
      "to": "0x62ca64454046bbc18e35066a6350acb0378eb3c2",
      "contractAddress": null,
      "gasUsedForL1": "0x0",
      "l1BlockNumber": "0x80a11e",
      "timeboosted": false
    },
    {
      "status": "0x1",
      "cumulativeGasUsed": "0x63d43",
      "logs": [],
      "logsBloom": "0x00000000000000000000000000000000000000000000000000000000000000000000000000000000000000000000000000000000000000000000000000000000000000000000000000000000000000000000000000000000000000000000000000000000000000000000000000000000000000000000000000000000000000000000000000000000000000000000000000000000000000000000000000000000000000000000000000000000000000000000000000000000000000000000000000000000000000000000000000000000000000000000000000000000000000000000000000000000000000000000000000000000000000000000000000000000",
      "type": "0x2",
      "transactionHash": "0xc1dc0180e380ecf09ee9983d02ca5f24d9b4862e77d3de47f9e9470598fe3f00",
      "transactionIndex": "0x4",
      "blockHash": "0x20791f97f856b663ad7470c49e24751f69f73de9f5d236dff8589a62ba3403e4",
      "blockNumber": "0x9698c15",
      "gasUsed": "0x1cabb",
      "effectiveGasPrice": "0x5f5e100",
      "from": "0x6faff29226219756aa40ce648dbc65fb41de5f72",
      "to": "0x62ca64454046bbc18e35066a6350acb0378eb3c2",
      "contractAddress": null,
      "gasUsedForL1": "0x0",
      "l1BlockNumber": "0x80a11e",
      "timeboosted": false
    },
    {
      "status": "0x1",
      "cumulativeGasUsed": "0x1c9f5",
      "logs": [],
      "logsBloom": "0x00000000000000000000000000000000000000000000000000000000000000000000000000000000000000000000000000000000000000000000000000000000000000000000000000000000000000000000000000000000000000000000000000000000000000000000000000000000000000000000000000000000000000000000000000000000000000000000000000000000000000000000000000000000000000000000000000000000000000000000000000000000000000000000000000000000000000000000000000000000000000000000000000000000000000000000000000000000000000000000000000000000000000000000000000000000",
      "type": "0x2",
      "transactionHash": "0xeb4fb1d11b40864ad266adb3644b3904c9ce08c2be1fa1af619f570661f03f69",
      "transactionIndex": "0x1",
      "blockHash": "0x55183f4c096a29419938fed518d0a50a2c1a51fd88a27dd42fa5c674d799a7ca",
      "blockNumber": "0x9698c1c",
      "gasUsed": "0x1c9f5",
      "effectiveGasPrice": "0x5f5e100",
      "from": "0x6faff29226219756aa40ce648dbc65fb41de5f72",
      "to": "0x62ca64454046bbc18e35066a6350acb0378eb3c2",
      "contractAddress": null,
      "gasUsedForL1": "0x0",
      "l1BlockNumber": "0x80a11e",
      "timeboosted": false
    },
    {
      "status": "0x1",
      "cumulativeGasUsed": "0x5cab8",
      "logs": [],
      "logsBloom": "0x00000000000000000000000000000000000000000000000000000000000000000000000000000000000000000000000000000000000000000000000000000000000000000000000000000000000000000000000000000000000000000000000000000000000000000000000000000000000000000000000000000000000000000000000000000000000000000000000000000000000000000000000000000000000000000000000000000000000000000000000000000000000000000000000000000000000000000000000000000000000000000000000000000000000000000000000000000000000000000000000000000000000000000000000000000000",
      "type": "0x2",
      "transactionHash": "0xbade33f2c2dbca05119fe5ec6b8c949aca903c2da2b6e10a39e75e98e14fab48",
      "transactionIndex": "0x5",
      "blockHash": "0x2297eb0fa9078fb3fe28378828bc5dd5d241b353cab9f3c913054fb6a877d3f5",
      "blockNumber": "0x9698c22",
      "gasUsed": "0x218c5",
      "effectiveGasPrice": "0x5f5e100",
      "from": "0x6faff29226219756aa40ce648dbc65fb41de5f72",
      "to": "0x62ca64454046bbc18e35066a6350acb0378eb3c2",
      "contractAddress": null,
      "gasUsedForL1": "0x0",
      "l1BlockNumber": "0x80a11e",
      "timeboosted": false
    }
  ],
  "libraries": [],
  "pending": [],
  "returns": {},
  "timestamp": 1748496565,
  "chain": 421614,
  "commit": "48bbf5b"
}