{
  "transactions": [
    {
      "hash": "0x33ce5ca1f2b6f8d4104707ccac07e66a47c0108ffe7da538aef1fba624b8dc00",
      "transactionType": "CALL",
      "contractName": null,
      "contractAddress": "0xc4f238cedc1f77a0fe36f60ecedef14336e4efbe",
      "function": "setTokenConversionInfo(address,uint8,uint256,uint256,uint256,address)",
      "arguments": [
        "0x0000000000000000000000000000000000000000",
        "0",
        "1000000000000000",
        "898000000000000000",
        "10000000000000000",
        "0x66f039Bc124A3f45D3b30BFdD903B72a4857878f"
      ],
      "transaction": {
        "from": "0x6faff29226219756aa40ce648dbc65fb41de5f72",
        "to": "0xc4f238cedc1f77a0fe36f60ecedef14336e4efbe",
        "gas": "0x29d62",
        "value": "0x0",
        "input": "0x73effedd0000000000000000000000000000000000000000000000000000000000000000000000000000000000000000000000000000000000000000000000000000000000000000000000000000000000000000000000000000000000038d7ea4c680000000000000000000000000000000000000000000000000000c76563e004d0000000000000000000000000000000000000000000000000000002386f26fc1000000000000000000000000000066f039bc124a3f45d3b30bfdd903b72a4857878f",
        "nonce": "0x4",
        "chainId": "0x61"
      },
      "additionalContracts": [],
      "isFixedGasLimit": false
    },
    {
      "hash": "0xe6e9ca673401581b7a5c2b88d11316ef8534d656ad45e0ed81354c8f8b6c2f8a",
      "transactionType": "CALL",
      "contractName": null,
      "contractAddress": "0xc4f238cedc1f77a0fe36f60ecedef14336e4efbe",
      "function": "setTokenConversionInfo(address,uint8,uint256,uint256,uint256,address)",
      "arguments": [
        "0x1dB58359534600b08Fe7061608920f1C47E7b0b0",
        "0",
        "1000000000000000000",
        "664600000000000000",
        "10000000000000000",
        "0x1Ed8c557791e0c98D72387423ab5c215d358E5a4"
      ],
      "transaction": {
        "from": "0x6faff29226219756aa40ce648dbc65fb41de5f72",
        "to": "0xc4f238cedc1f77a0fe36f60ecedef14336e4efbe",
        "gas": "0x2798d",
        "value": "0x0",
        "input": "0x73effedd0000000000000000000000001db58359534600b08fe7061608920f1c47e7b0b000000000000000000000000000000000000000000000000000000000000000000000000000000000000000000000000000000000000000000de0b6b3a76400000000000000000000000000000000000000000000000000000939222dc5b98000000000000000000000000000000000000000000000000000002386f26fc100000000000000000000000000001ed8c557791e0c98d72387423ab5c215d358e5a4",
        "nonce": "0x5",
        "chainId": "0x61"
      },
      "additionalContracts": [],
      "isFixedGasLimit": false
    },
    {
      "hash": "0xd13616af861dc32ac0c35c29e13b3291a0f7286dd910e33dfdc03dfdbbd35b35",
      "transactionType": "CALL",
      "contractName": null,
      "contractAddress": "0xc4f238cedc1f77a0fe36f60ecedef14336e4efbe",
      "function": "setTokenConversionInfo(address,uint8,uint256,uint256,uint256,address)",
      "arguments": [
        "0x66f039Bc124A3f45D3b30BFdD903B72a4857878f",
        "1",
        "1000000000000000",
        "898000000000000000",
        "10000000000000000",
        "0x0000000000000000000000000000000000000000"
      ],
      "transaction": {
        "from": "0x6faff29226219756aa40ce648dbc65fb41de5f72",
        "to": "0xc4f238cedc1f77a0fe36f60ecedef14336e4efbe",
        "gas": "0x29dd4",
        "value": "0x0",
        "input": "0x73effedd00000000000000000000000066f039bc124a3f45d3b30bfdd903b72a4857878f000000000000000000000000000000000000000000000000000000000000000100000000000000000000000000000000000000000000000000038d7ea4c680000000000000000000000000000000000000000000000000000c76563e004d0000000000000000000000000000000000000000000000000000002386f26fc100000000000000000000000000000000000000000000000000000000000000000000",
        "nonce": "0x6",
        "chainId": "0x61"
      },
      "additionalContracts": [],
      "isFixedGasLimit": false
    },
    {
      "hash": "0xf4202ff9531ce4c48df7c94b35dd00ef10bdf8ff6ea97cfef0c58438e69fd514",
      "transactionType": "CALL",
      "contractName": null,
      "contractAddress": "0xc4f238cedc1f77a0fe36f60ecedef14336e4efbe",
      "function": "setTokenConversionInfo(address,uint8,uint256,uint256,uint256,address)",
      "arguments": [
        "0x1Ed8c557791e0c98D72387423ab5c215d358E5a4",
        "1",
        "1000000000000000000",
        "664600000000000000",
        "10000000000000000",
        "0x1dB58359534600b08Fe7061608920f1C47E7b0b0"
      ],
      "transaction": {
        "from": "0x6faff29226219756aa40ce648dbc65fb41de5f72",
        "to": "0xc4f238cedc1f77a0fe36f60ecedef14336e4efbe",
        "gas": "0x310f4",
        "value": "0x0",
        "input": "0x73effedd0000000000000000000000001ed8c557791e0c98d72387423ab5c215d358e5a400000000000000000000000000000000000000000000000000000000000000010000000000000000000000000000000000000000000000000de0b6b3a76400000000000000000000000000000000000000000000000000000939222dc5b98000000000000000000000000000000000000000000000000000002386f26fc100000000000000000000000000001db58359534600b08fe7061608920f1c47e7b0b0",
        "nonce": "0x7",
        "chainId": "0x61"
      },
      "additionalContracts": [],
      "isFixedGasLimit": false
    }
  ],
  "receipts": [
    {
      "status": "0x1",
      "cumulativeGasUsed": "0x3fb36",
      "logs": [],
      "logsBloom": "0x00000000000000000000000000000000000000000000000000000000000000000000000000000000000000000000000000000000000000000000000000000000000000000000000000000000000000000000000000000000000000000000000000000000000000000000000000000000000000000000000000000000000000000000000000000000000000000000000000000000000000000000000000000000000000000000000000000000000000000000000000000000000000000000000000000000000000000000000000000000000000000000000000000000000000000000000000000000000000000000000000000000000000000000000000000000",
      "type": "0x2",
      "transactionHash": "0x33ce5ca1f2b6f8d4104707ccac07e66a47c0108ffe7da538aef1fba624b8dc00",
      "transactionIndex": "0x1",
      "blockHash": "0x5f67858627ec2957f7d38af885eb3dd90fb70562cdfa07c52cea18af3df40a59",
      "blockNumber": "0x3276b5f",
      "gasUsed": "0x1c9b3",
      "effectiveGasPrice": "0x20c85580",
      "from": "0x6faff29226219756aa40ce648dbc65fb41de5f72",
      "to": "0xc4f238cedc1f77a0fe36f60ecedef14336e4efbe",
      "contractAddress": null
    },
    {
      "status": "0x1",
      "cumulativeGasUsed": "0x5c5e5",
      "logs": [],
      "logsBloom": "0x00000000000000000000000000000000000000000000000000000000000000000000000000000000000000000000000000000000000000000000000000000000000000000000000000000000000000000000000000000000000000000000000000000000000000000000000000000000000000000000000000000000000000000000000000000000000000000000000000000000000000000000000000000000000000000000000000000000000000000000000000000000000000000000000000000000000000000000000000000000000000000000000000000000000000000000000000000000000000000000000000000000000000000000000000000000",
      "type": "0x2",
      "transactionHash": "0xe6e9ca673401581b7a5c2b88d11316ef8534d656ad45e0ed81354c8f8b6c2f8a",
      "transactionIndex": "0x2",
      "blockHash": "0x5f67858627ec2957f7d38af885eb3dd90fb70562cdfa07c52cea18af3df40a59",
      "blockNumber": "0x3276b5f",
      "gasUsed": "0x1caaf",
      "effectiveGasPrice": "0x20c85580",
      "from": "0x6faff29226219756aa40ce648dbc65fb41de5f72",
      "to": "0xc4f238cedc1f77a0fe36f60ecedef14336e4efbe",
      "contractAddress": null
    },
    {
      "status": "0x1",
      "cumulativeGasUsed": "0x78fe6",
      "logs": [],
      "logsBloom": "0x00000000000000000000000000000000000000000000000000000000000000000000000000000000000000000000000000000000000000000000000000000000000000000000000000000000000000000000000000000000000000000000000000000000000000000000000000000000000000000000000000000000000000000000000000000000000000000000000000000000000000000000000000000000000000000000000000000000000000000000000000000000000000000000000000000000000000000000000000000000000000000000000000000000000000000000000000000000000000000000000000000000000000000000000000000000",
      "type": "0x2",
      "transactionHash": "0xd13616af861dc32ac0c35c29e13b3291a0f7286dd910e33dfdc03dfdbbd35b35",
      "transactionIndex": "0x3",
      "blockHash": "0x5f67858627ec2957f7d38af885eb3dd90fb70562cdfa07c52cea18af3df40a59",
      "blockNumber": "0x3276b5f",
      "gasUsed": "0x1ca01",
      "effectiveGasPrice": "0x20c85580",
      "from": "0x6faff29226219756aa40ce648dbc65fb41de5f72",
      "to": "0xc4f238cedc1f77a0fe36f60ecedef14336e4efbe",
      "contractAddress": null
    },
    {
      "status": "0x1",
      "cumulativeGasUsed": "0x9a89f",
      "logs": [],
      "logsBloom": "0x00000000000000000000000000000000000000000000000000000000000000000000000000000000000000000000000000000000000000000000000000000000000000000000000000000000000000000000000000000000000000000000000000000000000000000000000000000000000000000000000000000000000000000000000000000000000000000000000000000000000000000000000000000000000000000000000000000000000000000000000000000000000000000000000000000000000000000000000000000000000000000000000000000000000000000000000000000000000000000000000000000000000000000000000000000000",
      "type": "0x2",
      "transactionHash": "0xf4202ff9531ce4c48df7c94b35dd00ef10bdf8ff6ea97cfef0c58438e69fd514",
      "transactionIndex": "0x4",
      "blockHash": "0x5f67858627ec2957f7d38af885eb3dd90fb70562cdfa07c52cea18af3df40a59",
      "blockNumber": "0x3276b5f",
      "gasUsed": "0x218b9",
      "effectiveGasPrice": "0x20c85580",
      "from": "0x6faff29226219756aa40ce648dbc65fb41de5f72",
      "to": "0xc4f238cedc1f77a0fe36f60ecedef14336e4efbe",
      "contractAddress": null
    }
  ],
  "libraries": [],
  "pending": [],
  "returns": {},
  "timestamp": 1748515378,
  "chain": 97,
  "commit": "5474839"
}